:100000000C942A000C9447000C9447000C94470071
:100010000C9447000C9447000C9447000C94470044
:100020000C9447000C9447000C9447000C94470034
:100030000C9447000C9447000C9447000C94541AFD
:100040000C9473060C9447000C9447000C944700E2
:100050000C94470011241FBECFE5D8E0DEBFCDBF12
:1000600015E0A0E6B0E0E8E7F6E702C005900D92E3
:10007000AC31B107D9F715E0ACE1B5E001C01D9294
:10008000AA34B107E1F70E94231B0C943A3B0C946D
:100090000000EF92FF920F931F937B018C0120E0F1
:1000A00030E040E05FE40E94490388238CF0C801FF
:1000B000B70120E030E040E05FE40E94C1010E940F
:1000C000A9039B01AC01205030404040504806C07D
:1000D000C801B7010E94A9039B01AC01B901CA0183
:1000E0001F910F91FF90EF900895A0E0B0E0EBE733
:1000F000F0E00C94033BDC012B01FA019C9192305F
:1001000008F439C1EB018881823008F433C194309E
:1001100069F4843009F02FC111969C91119789815F
:10012000981709F428C1A4E0B5E025C1843009F48A
:1001300021C18230A9F4923009F01DC19A01AD01AC
:1001400088E0EA010990AE01E90109929E0181501F
:10015000C1F7E201898111969C918923818308C1AD
:10016000923009F407C112962D903C901397EB0141
:100170008A819B811496AD90BD90CD90DC901797AD
:10018000EC80FD800E811F819101281B390BB90184
:1001900037FF04C066277727621B730B6032710537
:1001A0000CF061C0121613066CF537014801062EDB
:1001B00004C096948794779467940A94D2F721E0C8
:1001C00030E040E050E004C0220F331F441F551FB1
:1001D0006A95D2F721503040404050402E213F21B7
:1001E00040235123211531054105510521F021E01E
:1001F00030E040E050E079018A01E628F72808293C
:1002000019293CC0232BD1F1260E371E350146019A
:10021000062E04C096948794779467940A94D2F734
:1002200021E030E040E050E004C0220F331F441FC3
:10023000551F6A95D2F721503040404050402A2146
:100240003B214C215D21211531054105510521F04E
:1002500021E030E040E050E059016A01A628B728CB
:10026000C828D9280BC0821593052CF01C01AA249C
:10027000BB24650103C0EE24FF24870111969C91E5
:10028000D20111968C91981709F445C0992339F041
:10029000A80197012A193B094C095D0906C0A6016E
:1002A00095012E193F09400B510B57FD08C01182D3
:1002B0003382228224833583468357831DC081E0A5
:1002C00081833382228288279927DC01821B930B4A
:1002D000A40BB50B84839583A683B7830DC0220F2F
:1002E000331F441F551F24833583468357838281E0
:1002F000938101979383828324813581468157813D
:10030000DA01C9010197A109B1098F5F9F4FAF4F72
:10031000BF4328F30BC0918333822282EA0CFB1C7B
:100320000C1D1D1DE482F5820683178383E0808304
:10033000248135814681578157FF1AC0C901AA27F8
:1003400097FDA095BA2F81709070A070B0705695EF
:10035000479537952795822B932BA42BB52B848318
:100360009583A683B7838281938101969383828349
:10037000DF0101C0D201CD01CDB7DEB7E2E10C94BF
:100380001F3BA0E2B0E0E7ECF1E00C940F3B698387
:100390007A838B839C832D833E834F835887E9E048
:1003A000EE2EF12CEC0EFD1ECE010196B7010E943F
:1003B000D2048E010F5E1F4FCE010596B8010E9438
:1003C000D2048A8991E089278A8BC701B801AE01DE
:1003D000475E5F4F0E9475000E94FD03A096E6E015
:1003E0000C942B3BA0E2B0E0E8EFF1E00C940F3B63
:1003F00069837A838B839C832D833E834F835887C5
:10040000F9E0EF2EF12CEC0EFD1ECE010196B701A6
:100410000E94D2048E010F5E1F4FCE010596B801D7
:100420000E94D204C701B801AE01475E5F4F0E942F
:1004300075000E94FD03A096E6E00C942B3BA0E221
:10044000B0E0E5E2F2E00C94033B69837A838B83AE
:100450009C832D833E834F835887CE010196BE0136
:10046000675F7F4F0E94D204CE010596BE016F5E8A
:100470007F4F0E94D2049985923088F0898982301A
:10048000C8F0943019F4823051F404C0843029F457
:10049000923081F484E095E0C6C0923049F420E0C7
:1004A0009A858A89981321E02A87CE010996BBC0D4
:1004B000823049F420E09A858A89981321E02A8BBA
:1004C000CE014196B0C02D843E844F8458886D88FB
:1004D0007E888F88988CEE24FF248701AA24BB2471
:1004E000650140E050E060E070E0E0E0F0E0C10174
:1004F00081709070892BE9F0E60CF71C081D191D1E
:100500009A01AB012A0D3B1D4C1D5D1D80E090E062
:10051000A0E0B0E0E614F7040805190520F481E036
:1005200090E0A0E0B0E0BA01A901480F591F6A1F8E
:100530007B1FAA0CBB1CCC1CDD1C97FE08C081E0F5
:1005400090E0A0E0B0E0A82AB92ACA2ADB2A3196B6
:10055000E032F10549F0660C771C881C991C569412
:10056000479437942794C3CFFA85EA892B893C892D
:100570008B859C85280F391F2E5F3F4F17C0CA01FE
:1005800081709070892B61F016950795F794E79428
:1005900080E090E0A0E0B0E8E82AF92A0A2B1B2BC3
:1005A00076956795579547952F5F3F4F77FDE7CF36
:1005B0000CC0440F551F661F771F17FD4160EE0CDE
:1005C000FF1C001F111F21503040403090E05907A0
:1005D00090E0690790E4790760F32B8F3C8FDB0193
:1005E000CA018F779070A070B07080349105A1051A
:1005F000B10561F447FD0AC0E114F10401051105DC
:1006000029F0405C5F4F6F4F7F4F40781A8EFE1786
:1006100011F081E08A8F4D8F5E8F6F8F78A383E01A
:10062000898FCE0149960E94FD03A096E2E10C94C9
:100630001F3BA8E1B0E0EFE1F3E00C940F3B6983CE
:100640007A838B839C832D833E834F83588789E0F5
:10065000E82EF12CEC0EFD1ECE010196B7010E9492
:10066000D2048E010F5E1F4FCE010596B8010E9485
:10067000D2048985823040F08989823028F0C70110
:10068000B8010E944A0501C08FEF6896E6E00C941D
:100690002B3BA8E1B0E0EFE4F3E00C940F3B69835F
:1006A0007A838B839C832D833E834F83588789E095
:1006B000E82EF12CEC0EFD1ECE010196B7010E9432
:1006C000D2048E010F5E1F4FCE010596B8010E9425
:1006D000D2048985823040F08989823028F0C701B0
:1006E000B8010E944A0501C08FEF6896E6E00C94BD
:1006F0002B3BA8E1B0E0EFE7F3E00C940F3B6983FC
:100700007A838B839C832D833E834F83588789E034
:10071000E82EF12CEC0EFD1ECE010196B7010E94D1
:10072000D2048E010F5E1F4FCE010596B8010E94C4
:10073000D2048985823040F08989823028F0C7014F
:10074000B8010E944A0501C081E06896E6E00C9479
:100750002B3BACE0B0E0EFEAF3E00C94133B698391
:100760007A838B839C83CE010196BE016B5F7F4FA2
:100770000E94D2048D81823061F1823050F1843048
:1007800021F48E81882351F12EC02F81388537FDC9
:1007900020C06E812F3131051CF06623F9F023C093
:1007A0008EE190E0821B930B29853A854B855C8511
:1007B00004C056954795379527958A95D2F76623B5
:1007C000B1F050954095309521953F4F4F4F5F4F79
:1007D0000EC020E030E040E050E009C02FEF3FEFD6
:1007E0004FEF5FE704C020E030E040E050E8B9019F
:1007F000CA012C96E2E00C942F3BDF92EF92FF921D
:100800000F931F93FC01E480F58006811781D1804E
:100810008081823048F480E090E0A0E1B0E0E82AF6
:10082000F92A0A2B1B2BA5C0843009F49FC0823003
:1008300021F4EE24FF24870105C0E114F104010531
:10084000110519F4E0E0F0E096C0628173819FEF3A
:10085000623879070CF05BC022E83FEF261B370BAC
:100860002A3131052CF020E030E040E050E02AC091
:10087000B801A701022E04C0769567955795479554
:100880000A94D2F781E090E0A0E0B0E004C0880FC5
:10089000991FAA1FBB1F2A95D2F70197A109B10979
:1008A0008E219F21A023B1230097A105B10521F03E
:1008B00081E090E0A0E0B0E09A01AB01282B392B59
:1008C0004A2B5B2BDA01C9018F779070A070B07052
:1008D00080349105A105B10539F427FF09C0205CDA
:1008E0003F4F4F4F5F4F04C0215C3F4F4F4F5F4F13
:1008F000E0E0F0E02030A0E03A07A0E04A07A0E402
:100900005A0710F0E1E0F0E079018A0127C0603871
:10091000710564F5FB01E158FF4FD801C7018F77DE
:100920009070A070B07080349105A105B10539F4C4
:10093000E7FE0DC080E490E0A0E0B0E004C08FE3EB
:1009400090E0A0E0B0E0E80EF91E0A1F1B1F17FFA1
:1009500005C016950795F794E794319687E01695AC
:100960000795F794E7948A95D1F705C0EE24FF2404
:100970008701EFEFF0E06E2F679566276795902F60
:100980009F77D794DD24D7948E2F8695492F462BB9
:10099000582F5D29B701CA011F910F91FF90EF9069
:1009A000DF900895FC01DB01408151812281622F9B
:1009B0006F7770E0221F2227221F9381892F880FD3
:1009C000822B282F30E0991F9927991F11969C930D
:1009D000119721153105A9F54115510561057105DD
:1009E00011F482E037C082E89FEF13969C938E93B8
:1009F00012979A01AB0167E0220F331F441F551F66
:100A00006A95D1F783E08C930DC0220F331F441FEA
:100A1000551F12968D919C911397019713969C9355
:100A20008E931297203080E0380780E0480780E4FA
:100A3000580758F314962D933D934D935C93179755
:100A400008952F3F310579F4411551056105710570
:100A500019F484E08C93089564FF03C081E08C93C3
:100A600012C01C9210C02F57304013963C932E9307
:100A7000129783E08C9387E0440F551F661F771F02
:100A80008A95D1F7706414964D935D936D937C9322
:100A9000179708951F93DC01FB019C91923008F495
:100AA00047C08081823008F443C0943051F41196DD
:100AB0001C91843099F58181682F70E0611B710968
:100AC0003FC0843021F0923031F48230B9F181811D
:100AD000882389F12DC011961C9111978230F1F075
:100AE00081811817D9F412962D913C911397828128
:100AF00093818217930794F028173907BCF0149656
:100B00008D919D910D90BC91A02D248135814681C0
:100B10005781281739074A075B0718F4112341F05A
:100B20000AC082179307A407B50740F4112319F0F0
:100B300061E070E005C06FEF7FEF02C060E070E041
:100B4000CB011F910895DF93CF9300D0CDB7DEB7CF
:100B50009A83898389819A81009731F089819A816A
:100B600090931D0580931C050F900F90CF91DF91FE
:100B70000895DF93CF93CDB7DEB7A7E2B0E0E7E209
:100B8000F0E080818F778C93A7E2B0E0E7E2F0E0BD
:100B9000808180648C93A6E2B0E0E6E2F0E08081A0
:100BA00080688C93A7E2B0E0E7E2F0E080818062A9
:100BB0008C93CF91DF910895DF93CF93CDB7DEB7BC
:100BC000A7E2B0E0E7E2F0E080818F778C93A7E2C4
:100BD000B0E0E7E2F0E0808180648C93A6E2B0E0D0
:100BE000E6E2F0E0808180628C93A7E2B0E0E7E289
:100BF000F0E0808180628C930E945706A0E5B0E00F
:100C0000E0E5F0E080818F7D8C93A0E5B0E0E0E549
:100C1000F0E080818F7B8C93A0E5B0E0E0E5F0E030
:100C200080818F778C93A6E2B0E0E6E2F0E08081ED
:100C300081608C93A6E2B0E0E6E2F0E08081826021
:100C40008C93A6E2B0E0E6E2F0E0808184608C93D1
:100C5000CF91DF910895DF93CF93CDB7DEB7A6E2B2
:100C6000B0E0E6E2F0E0808180688C930E94490663
:100C7000CF91DF910895DF93CF93CDB7DEB7A6E292
:100C8000B0E0E6E2F0E080818F778C93CF91DF9146
:100C90000895DF93CF93CDB7DEB7A6E2B0E0E6E2EA
:100CA000F0E0808180648C93CF91DF910895DF9391
:100CB000CF93CDB7DEB7A6E2B0E0E6E2F0E0808108
:100CC00088608C93CF91DF910895DF93CF93CDB758
:100CD000DEB7A6E2B0E0E6E2F0E08081877F8C93A9
:100CE000CF91DF9108951F920F920FB60F921124AA
:100CF0002F933F934F935F936F937F938F939F9324
:100D0000AF93BF93EF93FF93DF93CF9300D0CDB713
:100D1000DEB7E5E2F0E08081882F90E09A83898356
:100D2000E0911C05F0911D0589819A8109950F902C
:100D30000F90CF91DF91FF91EF91BF91AF919F9174
:100D40008F917F916F915F914F913F912F910F9074
:100D50000FBE0F901F901895DF93CF9300D00F9286
:100D6000CDB7DEB789838981282F30E03B832A8382
:100D70008A819B818330910509F49BC02A813B8144
:100D8000243031058CF48A819B818130910509F4EE
:100D900048C02A813B81223031050CF066C08A812F
:100DA0009B810097D1F038C12A813B8125303105E4
:100DB00009F4C7C08A819B81853091050CF49DC0E0
:100DC0002A813B812630310509F4DFC08A819B816D
:100DD0008730910509F4FDC01FC1A7E2B0E0E7E24A
:100DE000F0E080818E7F8C93A7E2B0E0E7E2F0E054
:100DF00080818D7F8C93A7E2B0E0E7E2F0E0808114
:100E00008B7F8C93A7E2B0E0E7E2F0E08081877F00
:100E10008C93A7E2B0E0E7E2F0E080818F7E8C93D4
:100E2000FBC0A7E2B0E0E7E2F0E0808181608C9354
:100E3000A7E2B0E0E7E2F0E080818D7F8C93A7E24B
:100E4000B0E0E7E2F0E080818B7F8C93A7E2B0E036
:100E5000E7E2F0E08081877F8C93A7E2B0E0E7E2F1
:100E6000F0E080818F7E8C93D7C0A7E2B0E0E7E20C
:100E7000F0E080818E7F8C93A7E2B0E0E7E2F0E0C3
:100E8000808182608C93A7E2B0E0E7E2F0E08081AD
:100E90008B7F8C93A7E2B0E0E7E2F0E08081877F70
:100EA0008C93A7E2B0E0E7E2F0E080818F7E8C9344
:100EB000B3C0A7E2B0E0E7E2F0E0808181608C930C
:100EC000A7E2B0E0E7E2F0E0808182608C93A7E2E5
:100ED000B0E0E7E2F0E080818B7F8C93A7E2B0E0A6
:100EE000E7E2F0E08081877F8C93A7E2B0E0E7E261
:100EF000F0E080818F7E8C938FC0A7E2B0E0E7E2C4
:100F0000F0E080818E7F8C93A7E2B0E0E7E2F0E032
:100F100080818D7F8C93A7E2B0E0E7E2F0E08081F2
:100F200084608C93A7E2B0E0E7E2F0E08081877F05
:100F30008C93A7E2B0E0E7E2F0E080818F7E8C93B3
:100F40006BC0A7E2B0E0E7E2F0E0808181608C93C3
:100F5000A7E2B0E0E7E2F0E080818D7F8C93A7E22A
:100F6000B0E0E7E2F0E0808184608C93A7E2B0E03B
:100F7000E7E2F0E08081877F8C93A7E2B0E0E7E2D0
:100F8000F0E080818F7E8C9347C0A7E2B0E0E7E27B
:100F9000F0E080818E7F8C93A7E2B0E0E7E2F0E0A2
:100FA000808182608C93A7E2B0E0E7E2F0E080818C
:100FB00084608C93A7E2B0E0E7E2F0E08081877F75
:100FC0008C93A7E2B0E0E7E2F0E080818F7E8C9323
:100FD00023C0A7E2B0E0E7E2F0E0808181608C937B
:100FE000A7E2B0E0E7E2F0E0808182608C93A7E2C4
:100FF000B0E0E7E2F0E0808184608C93A7E2B0E0AB
:10100000E7E2F0E08081877F8C93A7E2B0E0E7E23F
:10101000F0E080818F7E8C930F900F900F90CF9196
:10102000DF910895DF93CF9300D000D00F92CDB71A
:10103000DEB789837B836A838981282F30E03D83F3
:101040002C838C819D818330910509F49BC02C8178
:101050003D81243031058CF48C819D818130910556
:1010600009F448C02C813D81223031050CF066C066
:101070008C819D810097D1F038C12C813D81253034
:10108000310509F4C7C08C819D81853091050CF430
:101090009DC02C813D812630310509F4DFC08C8153
:1010A0009D818730910509F4FDC01FC1A7E2B0E022
:1010B000E7E2F0E080818E7F8C93A7E2B0E0E7E288
:1010C000F0E080818D7F8C93A7E2B0E0E7E2F0E072
:1010D00080818B7F8C93A7E2B0E0E7E2F0E0808133
:1010E000877F8C93A7E2B0E0E7E2F0E080818F7E1B
:1010F0008C93FBC0A7E2B0E0E7E2F0E08081816082
:101100008C93A7E2B0E0E7E2F0E080818D7F8C93E2
:10111000A7E2B0E0E7E2F0E080818B7F8C93A7E26A
:10112000B0E0E7E2F0E08081877F8C93A7E2B0E057
:10113000E7E2F0E080818F7E8C93D7C0A7E2B0E039
:10114000E7E2F0E080818E7F8C93A7E2B0E0E7E2F7
:10115000F0E0808182608C93A7E2B0E0E7E2F0E00B
:1011600080818B7F8C93A7E2B0E0E7E2F0E08081A2
:10117000877F8C93A7E2B0E0E7E2F0E080818F7E8A
:101180008C93B3C0A7E2B0E0E7E2F0E08081816039
:101190008C93A7E2B0E0E7E2F0E0808182608C937C
:1011A000A7E2B0E0E7E2F0E080818B7F8C93A7E2DA
:1011B000B0E0E7E2F0E08081877F8C93A7E2B0E0C7
:1011C000E7E2F0E080818F7E8C938FC0A7E2B0E0F1
:1011D000E7E2F0E080818E7F8C93A7E2B0E0E7E267
:1011E000F0E080818D7F8C93A7E2B0E0E7E2F0E051
:1011F000808184608C93A7E2B0E0E7E2F0E0808138
:10120000877F8C93A7E2B0E0E7E2F0E080818F7EF9
:101210008C936BC0A7E2B0E0E7E2F0E080818160F0
:101220008C93A7E2B0E0E7E2F0E080818D7F8C93C1
:10123000A7E2B0E0E7E2F0E0808184608C93A7E26F
:10124000B0E0E7E2F0E08081877F8C93A7E2B0E036
:10125000E7E2F0E080818F7E8C9347C0A7E2B0E0A8
:10126000E7E2F0E080818E7F8C93A7E2B0E0E7E2D6
:10127000F0E0808182608C93A7E2B0E0E7E2F0E0EA
:10128000808184608C93A7E2B0E0E7E2F0E08081A7
:10129000877F8C93A7E2B0E0E7E2F0E080818F7E69
:1012A0008C9323C0A7E2B0E0E7E2F0E080818160A8
:1012B0008C93A7E2B0E0E7E2F0E0808182608C935B
:1012C000A7E2B0E0E7E2F0E0808184608C93A7E2DF
:1012D000B0E0E7E2F0E08081877F8C93A7E2B0E0A6
:1012E000E7E2F0E080818F7E8C93A6E2B0E0E6E258
:1012F000F0E0808180648C93E6E2F0E0808182956A
:101300008F70882F90E0817090700097A9F3A6E20B
:10131000B0E0E6E2F0E0808180618C93E5E2F0E00D
:101320008081882F90E0EA81FB81918380830F90F8
:101330000F900F900F900F90CF91DF910895DF9352
:10134000CF93CDB7DEB72E970FB6F894DEBF0FBEA2
:10135000CDBF8A836B834C8381E089838A8184300B
:1013600008F005C18B81883008F001C18C81823082
:1013700008F0FDC08A81282F30E03E872D878D85BB
:101380009E858130910509F44EC02D853E85223021
:1013900031052CF48D859E85009771F0E9C02D856F
:1013A0003E852230310509F475C08D859E858330D8
:1013B000910509F4A6C0DCC08C81282F30E03C8761
:1013C0002B878B859C850097C9F02B853C85213028
:1013D000310509F0CDC0AAE3B0E0EAE3F0E04081D6
:1013E0008B81282F30E081E090E0022E02C0880F30
:1013F000991F0A94E2F7842B8C93BAC0AAE3B0E059
:10140000EAE3F0E08081482F8B81282F30E081E0F3
:1014100090E0022E02C0880F991F0A94E2F780958F
:1014200084238C93A5C08C81282F30E03A872987AC
:1014300089859A850097C9F029853A85213031053B
:1014400009F096C0A7E3B0E0E7E3F0E040818B81CC
:10145000282F30E081E090E0022E02C0880F991F13
:101460000A94E2F7842B8C9383C0A7E3B0E0E7E310
:10147000F0E08081482F8B81282F30E081E090E0E0
:10148000022E02C0880F991F0A94E2F780958423E8
:101490008C936EC08C81282F30E038872F838F810A
:1014A00098850097C9F02F8138852130310509F0E2
:1014B0005FC0A4E3B0E0E4E3F0E040818B81282F3B
:1014C00030E081E090E0022E02C0880F991F0A945C
:1014D000E2F7842B8C934CC0A4E3B0E0E4E3F0E0AB
:1014E0008081482F8B81282F30E081E090E0022E10
:1014F00002C0880F991F0A94E2F7809584238C9389
:1015000037C08C81282F30E03E832D838D819E81D2
:101510000097C1F02D813E812130310549F5A1E3CD
:10152000B0E0E1E3F0E040818B81282F30E081E002
:1015300090E0022E02C0880F991F0A94E2F7842BD4
:101540008C9316C0A1E3B0E0E1E3F0E08081482F86
:101550008B81282F30E081E090E0022E02C0880FBE
:10156000991F0A94E2F7809584238C9301C0198215
:1015700089812E960FB6F894DEBF0FBECDBFCF91F6
:10158000DF910895DF93CF93CDB7DEB72E970FB6D7
:10159000F894DEBF0FBECDBF8A836B834C8381E09E
:1015A00089838A81843008F005C18B81883008F0F6
:1015B00001C18C81823008F0FDC08A81282F30E083
:1015C0003E872D878D859E858130910509F44EC01B
:1015D0002D853E85223031052CF48D859E85009722
:1015E00071F0E9C02D853E852230310509F475C0C2
:1015F0008D859E858330910509F4A6C0DCC08C8161
:10160000282F30E03C872B878B859C850097C9F07D
:101610002B853C852130310509F0CDC0ABE3B0E02E
:10162000EBE3F0E040818B81282F30E081E090E017
:10163000022E02C0880F991F0A94E2F7842B8C9324
:10164000BAC0ABE3B0E0EBE3F0E08081482F8B81E0
:10165000282F30E081E090E0022E02C0880F991F11
:101660000A94E2F7809584238C93A5C08C81282F5F
:1016700030E03A87298789859A850097C9F02985BE
:101680003A852130310509F096C0A8E3B0E0E8E3DF
:10169000F0E040818B81282F30E081E090E0022E45
:1016A00002C0880F991F0A94E2F7842B8C9383C0A1
:1016B000A8E3B0E0E8E3F0E08081482F8B81282F99
:1016C00030E081E090E0022E02C0880F991F0A945A
:1016D000E2F7809584238C936EC08C81282F30E0B4
:1016E00038872F838F8198850097C9F02F8138859F
:1016F0002130310509F05FC0A5E3B0E0E5E3F0E09B
:1017000040818B81282F30E081E090E0022E02C0E2
:10171000880F991F0A94E2F7842B8C934CC0A5E3A1
:10172000B0E0E5E3F0E08081482F8B81282F30E0A6
:1017300081E090E0022E02C0880F991F0A94E2F720
:10174000809584238C9337C08C81282F30E03E8392
:101750002D838D819E810097C1F02D813E812130A6
:10176000310549F5A2E3B0E0E2E3F0E040818B818E
:10177000282F30E081E090E0022E02C0880F991FF0
:101780000A94E2F7842B8C9316C0A2E3B0E0E2E364
:10179000F0E08081482F8B81282F30E081E090E0BD
:1017A000022E02C0880F991F0A94E2F780958423C5
:1017B0008C9301C0198289812E960FB6F894DEBFF2
:1017C0000FBECDBFCF91DF910895DF93CF93CDB7FB
:1017D000DEB727970FB6F894DEBF0FBECDBF8A8362
:1017E0006B835D834C8381E089838A81843008F038
:1017F0007AC08B81883008F076C08C819D810097FB
:1018000009F471C08A81282F30E03F832E834E81F6
:101810005F814130510559F18E819F818230910560
:1018200034F42E813F812115310569F05DC04E8170
:101830005F814230510579F18E819F81833091051E
:1018400009F43DC051C0E9E3F0E08081282F30E089
:101850008B81882F90E0A90102C0559547958A9504
:10186000E2F7CA018170EC81FD8180833DC0E6E32F
:10187000F0E08081282F30E08B81882F90E0A90153
:1018800002C0559547958A95E2F7CA018170EC81AF
:10189000FD81808329C0E3E3F0E08081282F30E0E0
:1018A0008B81882F90E0A90102C0559547958A95B4
:1018B000E2F7CA018170EC81FD81808315C0E0E30D
:1018C000F0E08081282F30E08B81882F90E0A90103
:1018D00002C0559547958A95E2F7CA018170EC815F
:1018E000FD81808301C01982898127960FB6F89403
:1018F000DEBF0FBECDBFCF91DF910895DF93CF93B1
:1019000000D000D00F92CDB7DEB78A836B8381E021
:1019100089838A81843098F58A81282F30E03D833D
:101920002C838C819D8181309105D1F02C813D816A
:10193000223031052CF48C819D81009761F020C00C
:101940002C813D812230310581F08C819D81833055
:10195000910581F015C0EAE3F0E08B81808310C02F
:10196000E7E3F0E08B8180830BC0E4E3F0E08B8160
:10197000808306C0E1E3F0E08B81808301C019829F
:1019800089810F900F900F900F900F90CF91DF9162
:101990000895DF93CF9300D000D00F92CDB7DEB77C
:1019A0008A836B8381E089838A81843098F58A8178
:1019B000282F30E03D832C838C819D8181309105DF
:1019C000D1F02C813D81223031052CF48C819D8118
:1019D000009761F020C02C813D812230310581F0DB
:1019E0008C819D818330910581F015C0EBE3F0E09F
:1019F0008B81808310C0E8E3F0E08B8180830BC093
:101A0000E5E3F0E08B81808306C0E2E3F0E08B81C8
:101A1000808301C0198289810F900F900F900F90E1
:101A20000F90CF91DF910895DF93CF93CDB7DEB7BD
:101A300027970FB6F894DEBF0FBECDBF8B837D8393
:101A40006C8381E08A838B81843008F03FC08C8175
:101A50009D810097D9F18B81282F30E03F832E8321
:101A60008E819F8181309105E1F02E813F8122306E
:101A700031052CF48E819F81009761F028C02E8162
:101A80003F8122303105A1F08E819F818330910505
:101A9000B1F01DC0E9E3F0E08081EC81FD8180833D
:101AA00016C0E6E3F0E08081EC81FD8180830FC009
:101AB000E3E3F0E08081EC81FD81808308C0E0E316
:101AC000F0E08081EC81FD81808301C019828A81F0
:101AD00027960FB6F894DEBF0FBECDBFCF91DF9132
:101AE0000895DF93CF93CDB7DEB70E94E50DCF9178
:101AF000DF910895DF93CF9300D00F92CDB7DEB77B
:101B00009A8389836B830E940A0E89819A818070EF
:101B10009770892F992780650E943E0E89810E94C7
:101B2000890E8B810E94890E0E94C70E0F900F9024
:101B30000F90CF91DF910895DF93CF9300D00F9254
:101B4000CDB7DEB79B838A830E940A0E8A819B8170
:101B500080709770892F992780650E943E0E8A8138
:101B60000E94890E0E94240E8A819B81807097704A
:101B7000892F992780650E94600E0E94AA0E898392
:101B80000E94C70E89810F900F900F90CF91DF9127
:101B90000895DF93CF93CDB7DEB7AFE5B0E0EFE5C3
:101BA000F0E0808180688C93CF91DF910895DF937E
:101BB000CF93CDB7DEB7AFE5B0E0EFE5F0E08081E1
:101BC0008F778C93CF91DF910895DF93CF93CDB72B
:101BD000DEB7E0E2F0E082E08083A1E2B0E0E1E2A3
:101BE000F0E080818C7F8C93E6E5F0E084E08083F8
:101BF000CF91DF910895DF93CF93CDB7DEB7E2E2C7
:101C0000F0E082E08083E6E5F0E084E08083CF913D
:101C1000DF910895DF93CF93CDB7DEB7E6E5F0E02F
:101C200084EA8083E6E5F0E080818823DCF7E1E266
:101C3000F0E08081882F90E0887F90708830910557
:101C4000B1F7CF91DF910895DF93CF93CDB7DEB792
:101C5000E6E5F0E084EA8083E6E5F0E08081882331
:101C6000DCF7E1E2F0E08081882F90E0887F9070DF
:101C700080319105B1F7CF91DF910895DF93CF9334
:101C80000F92CDB7DEB78983E3E2F0E08981880F58
:101C90008083E6E5F0E084E88083E6E5F0E080819B
:101CA0008823DCF7E1E2F0E08081882F90E0887FF4
:101CB000907088319105B1F70F90CF91DF91089521
:101CC000DF93CF930F92CDB7DEB78983E3E2F0E0E5
:101CD0008981880F8083A3E2B0E0E3E2F0E08081B5
:101CE00081608C93E6E5F0E084E88083E6E5F0E04F
:101CF00080818823DCF7E1E2F0E08081882F90E0AA
:101D0000887F907080349105B1F70F90CF91DF916B
:101D10000895DF93CF930F92CDB7DEB78983E3E2C7
:101D2000F0E089818083E6E5F0E084E88083E6E501
:101D3000F0E080818823DCF7E1E2F0E08081882F09
:101D400090E0887F907088329105B1F70F90CF9125
:101D5000DF910895DF93CF93CDB7DEB7E6E5F0E0EE
:101D600084E88083E6E5F0E080818823DCF7E1E227
:101D7000F0E08081882F90E0887F90708835910511
:101D8000B1F7E3E2F0E08081CF91DF910895DF9336
:101D9000CF93CDB7DEB7E6E5F0E084E98083CF915D
:101DA000DF910895DF93CF93CDB7DEB7E6E5F0E09E
:101DB00084EC8083E6E5F0E080818823DCF7E1E2D3
:101DC000F0E08081882F90E0887F907080369105C8
:101DD000B1F7CF91DF910895DF93CF93CDB7DEB701
:101DE000E6E5F0E084EC8083E6E5F0E0808188239E
:101DF000DCF7E1E2F0E08081882F90E0887F90704E
:101E0000883A9105B1F7CF91DF910895DF93CF9391
:101E1000CDB7DEB7E6E5F0E084EC8083E6E5F0E000
:101E200080818823DCF7E1E2F0E08081882F90E078
:101E3000887F907080389105B1F7E3E2F0E080810F
:101E4000CF91DF910895DF93CF930F92CDB7DEB797
:101E50008983E3E2F0E089818083E6E5F0E084ECC9
:101E60008083E6E5F0E080818823DCF7E1E2F0E0C2
:101E70008081882F90E0887F9070803C9105B1F739
:101E80000F90CF91DF910895DF93CF93CDB7DEB759
:101E9000EA970FB6F894DEBF0FBECDBF1AAE29C0C9
:101EA00019AE21C08AAD882F90E0FC01E45FFA4FA3
:101EB000908189AD9817A1F48AAD882F90E0FC013C
:101EC000EC5EFA4F20818AAD882F90E0FC01E45F40
:101ED000FA4F9081822F692F41E00E949F0906C02E
:101EE00089AD8F5F89AF89AD8830E0F28AAD8F5FB1
:101EF0008AAF8AAD8830A0F280E067E041E00E94BE
:101F00009F0980E066E041E00E949F0980E065E073
:101F100041E00E949F0980E090E0A0EFB1E48DAB2A
:101F20009EABAFABB8AF6DA97EA98FA998AD20E0ED
:101F300030E04AEF54E40E941F02DC01CB0189AB80
:101F40009AABABABBCAB69A97AA98BA99CA920E0E1
:101F500030E040E85FE30E94790388232CF481E0BD
:101F600090E098AB8FA73FC069A97AA98BA99CA9DB
:101F700020E03FEF4FE757E40E94190318164CF595
:101F80006DA97EA98FA998AD20E030E040E251E430
:101F90000E941F02DC01CB01BC01CD010E9449005F
:101FA000DC01CB0198AB8FA70FC088EC90E09EA717
:101FB0008DA78DA59EA50197F1F79EA78DA78FA54B
:101FC00098A9019798AB8FA78FA598A9009769F753
:101FD00014C069A97AA98BA99CA90E944900DC01B7
:101FE000CB0198AB8FA78FA598A99CA78BA78BA592
:101FF0009CA50197F1F79CA78BA78CE30E94651124
:1020000080E090E0A0E8BFE38FA398A7A9A7BAA7B4
:102010006FA178A589A59AA520E030E04AEF54E4A5
:102020000E941F02DC01CB018BA39CA3ADA3BEA326
:102030006BA17CA18DA19EA120E030E040E85FE390
:102040000E94790388232CF481E090E09AA389A36D
:102050003FC06BA17CA18DA19EA120E03FEF4FE787
:1020600057E40E94190318164CF56FA178A589A5AD
:102070009AA520E030E040E251E40E941F02DC011A
:10208000CB01BC01CD010E944900DC01CB019AA328
:1020900089A30FC088EC90E098A38F8F8F8D98A1B3
:1020A0000197F1F798A38F8F89A19AA101979AA31D
:1020B00089A389A19AA1009769F714C06BA17CA19B
:1020C0008DA19EA10E944900DC01CB019AA389A3A6
:1020D00089A19AA19E8F8D8F8D8D9E8D0197F1F78D
:1020E0009E8F8D8F8FE00E94651180E090E0A0E8C8
:1020F000BFE3898F9A8FAB8FBC8F698D7A8D8B8D63
:102100009C8D20E030E04AEF54E40E941F02DC0185
:10211000CB018D8B9E8BAF8BB88F6D897E898F891C
:10212000988D20E030E040E85FE30E947903882347
:102130002CF481E090E09C8B8B8B3FC06D897E8975
:102140008F89988D20E03FEF4FE757E40E941903F5
:1021500018164CF5698D7A8D8B8D9C8D20E030E0C2
:1021600040E251E40E941F02DC01CB01BC01CD0121
:102170000E944900DC01CB019C8B8B8B0FC088EC4B
:1021800090E09A8B898B89899A890197F1F79A8BCC
:10219000898B8B899C8901979C8B8B8B8B899C89E4
:1021A000009769F714C06D897E898F89988D0E9488
:1021B0004900DC01CB019C8B8B8B8B899C89988B94
:1021C0008F878F8598890197F1F7988B8F8781E0AA
:1021D0000E94651180E090E0A0E0B0E48B879C87CE
:1021E000AD87BE876B857C858D859E8520E030E040
:1021F0004AEF54E40E941F02DC01CB018F839887D1
:10220000A987BA876F81788589859A8520E030E033
:1022100040E85FE30E94790388232CF481E090E09A
:102220009E838D833FC06F81788589859A8520E064
:102230003FEF4FE757E40E94190318164CF56B85E2
:102240007C858D859E8520E030E040E251E40E944F
:102250001F02DC01CB01BC01CD010E944900DC0161
:10226000CB019E838D830FC088EC90E09C838B8391
:102270008B819C810197F1F79C838B838D819E815B
:1022800001979E838D838D819E81009769F714C08D
:102290006F81788589859A850E944900DC01CB0190
:1022A0009E838D838D819E819A83898389819A8182
:1022B0000197F1F79A838983EA960FB6F894DEBF07
:1022C0000FBECDBFCF91DF910895DF93CF93CDB7F0
:1022D000DEB761970FB6F894DEBF0FBECDBF898B16
:1022E00080E067E040E00E94C20A80E066E040E0F3
:1022F0000E94C20A188A38C01F8630C08889882F79
:1023000090E0FC01E45FFA4F90818F85981719F5F2
:102310008889882F90E0FC01EC5EFA4F5081888913
:10232000882F90E0FC01E45FFA4F40818989282FD3
:1023300030E08889882F90E0B90102C075956795D3
:102340008A95E2F7CB01982F9170852F642F492F42
:102350000E94C20A06C08F858F5F8F878F85883065
:1023600068F288898F5F888B8889883028F280E0BE
:1023700065E041E00E94C20A80E090E0A0E0B0E4A5
:102380008B879C87AD87BE876B857C858D859E8579
:1023900020E030E04AEF54E40E941F02DC01CB0150
:1023A0008F839887A987BA876F81788589859A8571
:1023B00020E030E040E85FE30E94790388232CF4BA
:1023C00081E090E09E838D833FC06F817885898511
:1023D0009A8520E03FEF4FE757E40E941903181653
:1023E0004CF56B857C858D859E8520E030E040E254
:1023F00051E40E941F02DC01CB01BC01CD010E940F
:102400004900DC01CB019E838D830FC088EC90E0F6
:102410009C838B838B819C810197F1F79C838B83B9
:102420008D819E8101979E838D838D819E810097F2
:1024300069F714C06F81788589859A850E94490063
:10244000DC01CB019E838D838D819E819A8389835C
:1024500089819A810197F1F79A83898380E065E009
:1024600040E00E94C20A61960FB6F894DEBF0FBE2C
:10247000CDBFCF91DF910895DF93CF93CDB7DEB776
:1024800061970FB6F894DEBF0FBECDBF898B80E099
:1024900067E041E00E94C20A80E066E040E00E94FE
:1024A000C20A188A38C01F8630C08889882F90E0F9
:1024B000FC01E45FFA4F90818F85981719F58889A0
:1024C000882F90E0FC01EC5EFA4F50818889882FBC
:1024D00090E0FC01E45FFA4F40818989282F30E0C9
:1024E0008889882F90E0B90102C0759567958A9513
:1024F000E2F7CB01982F9170852F642F492F0E940E
:10250000C20A06C08F858F5F8F878F85883068F2FB
:1025100088898F5F888B8889883028F280E065E021
:1025200041E00E94C20A80E090E0A0E0B0E48B8726
:102530009C87AD87BE876B857C858D859E8520E0D9
:1025400030E04AEF54E40E941F02DC01CB018F838C
:102550009887A987BA876F81788589859A8520E0D1
:1025600030E040E85FE30E94790388232CF481E0A7
:1025700090E09E838D833FC06F81788589859A85A1
:1025800020E03FEF4FE757E40E94190318164CF57F
:102590006B857C858D859E8520E030E040E251E4AE
:1025A0000E941F02DC01CB01BC01CD010E94490049
:1025B000DC01CB019E838D830FC088EC90E09C836F
:1025C0008B838B819C810197F1F79C838B838D8119
:1025D0009E8101979E838D838D819E81009769F7EF
:1025E00014C06F81788589859A850E944900DC0135
:1025F000CB019E838D838D819E819A83898389817E
:102600009A810197F1F79A83898380E065E040E041
:102610000E94C20A61960FB6F894DEBF0FBECDBF0E
:10262000CF91DF910895DF93CF9300D0CDB7DEB780
:1026300089836A838A81882329F4898180580E944A
:10264000651104C0898180540E9465110F900F901C
:10265000CF91DF910895DF93CF93CDB7DEB781E0BF
:102660000E946511CF91DF910895DF93CF93CDB78D
:10267000DEB780E40E946511CF91DF910895DF936A
:10268000CF93CDB7DEB780E80E946511CF91DF917F
:102690000895DF93CF93CDB7DEB7A4970FB6F89424
:1026A000DEBF0FBECDBF69A37AA38BA39CA31D8EF3
:1026B0001E8E1F8E18A2198E1A8E1B8E1C8E1D8ABE
:1026C0001E8A1F8A188E198A1A8A1B8A1C8A1D86DE
:1026D0001E861F86188A19861A861B861C861D82EE
:1026E0001E821F82188619821A821B821C8289A16F
:1026F0009AA1ABA1BCA10097A105B10521F480E38B
:102700000E943C125CC489A19AA1ABA1BCA1009714
:10271000A105B10571F089A19AA1ABA1BCA18A3034
:102720009105A105B10528F489A1805D0E943C12A4
:1027300046C489A19AA1ABA1BCA18A309105A1058B
:10274000B105B0F189A19AA1ABA1BCA184369105D4
:10275000A105B10568F589A19AA1ABA1BCA12AE0A8
:1027600030E040E050E0BC01CD010E94E13ADA01E6
:10277000C9018D8F9E8FAF8FB8A389A19AA1ABA1FC
:10278000BCA12AE030E040E050E0BC01CD010E9455
:10279000E13ADC01CB01898F9A8FAB8FBC8F8D8D95
:1027A000805D0E943C12898D805D0E943C1207C4AE
:1027B00089A19AA1ABA1BCA184369105A105B1055F
:1027C00008F462C089A19AA1ABA1BCA1883E23E014
:1027D000920720E0A20720E0B20708F055C089A1C7
:1027E0009AA1ABA1BCA124E630E040E050E0BC01DE
:1027F000CD010E94E13ADA01C9018D8F9E8FAF8F22
:10280000B8A389A19AA1ABA1BCA124E630E040E025
:1028100050E0BC01CD010E94E13ADC01CB01898F7F
:102820009A8FAB8FBC8F898D9A8DAB8DBC8D2AE032
:1028300030E040E050E0BC01CD010E94E13ADA0115
:10284000C90189839A83AB83BC83898D9A8DAB8DB3
:10285000BC8D2AE030E040E050E0BC01CD010E9498
:10286000E13ADC01CB018D8B9E8BAF8BB88F8D8DC8
:10287000805D0E943C128981805D0E943C128D899E
:10288000805D0E943C129BC389A19AA1ABA1BCA10F
:10289000883E23E0920720E0A20720E0B20708F478
:1028A00092C089A19AA1ABA1BCA1803127E2920775
:1028B00020E0A20720E0B20708F085C089A19AA114
:1028C000ABA1BCA128EE33E040E050E0BC01CD015B
:1028D0000E94E13ADA01C9018D8F9E8FAF8FB8A3B4
:1028E00089A19AA1ABA1BCA128EE33E040E050E061
:1028F000BC01CD010E94E13ADC01CB0189839A83BE
:10290000AB83BC8389819A81AB81BC8124E630E0B2
:1029100040E050E0BC01CD010E94E13ADA01C9017A
:10292000898F9A8FAB8FBC8F89819A81AB81BC8153
:1029300024E630E040E050E0BC01CD010E94E13AE5
:10294000DC01CB018D8B9E8BAF8BB88F8D899E89DF
:10295000AF89B88D89839A83AB83BC8389819A813F
:10296000AB81BC812AE030E040E050E0BC01CD0109
:102970000E94E13ADA01C9018D8B9E8BAF8BB88F33
:1029800089819A81AB81BC812AE030E040E050E04F
:10299000BC01CD010E94E13ADC01CB01898B9A8B0D
:1029A000AB8BBC8B8D8D805D0E943C12898D805DD0
:1029B0000E943C128D89805D0E943C128989805D55
:1029C0000E943C12FCC289A19AA1ABA1BCA180319A
:1029D00027E2920720E0A20720E0B20708F4C2C075
:1029E00089A19AA1ABA1BCA1803A26E8920721E077
:1029F000A20720E0B20708F0B5C089A19AA1ABA157
:102A0000BCA120E137E240E050E0BC01CD010E94D2
:102A1000E13ADA01C9018D8F9E8FAF8FB8A389A1EA
:102A20009AA1ABA1BCA120E137E240E050E0BC019B
:102A3000CD010E94E13ADC01CB0189839A83AB830B
:102A4000BC8389819A81AB81BC8128EE33E040E070
:102A500050E0BC01CD010E94E13ADA01C901898F41
:102A60009A8FAB8FBC8F89819A81AB81BC8128EE14
:102A700033E040E050E0BC01CD010E94E13ADC01CE
:102A8000CB018D8B9E8BAF8BB88F8D899E89AF8943
:102A9000B88D89839A83AB83BC8389819A81AB810A
:102AA000BC8124E630E040E050E0BC01CD010E9452
:102AB000E13ADA01C9018D8B9E8BAF8BB88F89818A
:102AC0009A81AB81BC8124E630E040E050E0BC015B
:102AD000CD010E94E13ADC01CB01898B9A8BAB8B53
:102AE000BC8B89899A89AB89BC8989839A83AB839A
:102AF000BC8389819A81AB81BC812AE030E040E0CF
:102B000050E0BC01CD010E94E13ADA01C901898B94
:102B10009A8BAB8BBC8B89819A81AB81BC812AE07B
:102B200030E040E050E0BC01CD010E94E13ADC0120
:102B3000CB018D879E87AF87B88B8D8D805D0E947E
:102B40003C12898D805D0E943C128D89805D0E94BF
:102B50003C128989805D0E943C128D85805D0E94B7
:102B60003C122DC289A19AA1ABA1BCA1803A26E852
:102B7000920721E0A20720E0B20708F4F2C089A181
:102B80009AA1ABA1BCA1803422E492072FE0A20756
:102B900020E0B20708F0E5C089A19AA1ABA1BCA1D1
:102BA00020EA36E841E050E0BC01CD010E94E13A64
:102BB000DA01C9018D8F9E8FAF8FB8A389A19AA129
:102BC000ABA1BCA120EA36E841E050E0BC01CD0158
:102BD0000E94E13ADC01CB0189839A83AB83BC83F9
:102BE00089819A81AB81BC8120E137E240E050E0ED
:102BF000BC01CD010E94E13ADA01C901898F9A8FA7
:102C0000AB8FBC8F89819A81AB81BC8120E137E297
:102C100040E050E0BC01CD010E94E13ADC01CB0173
:102C20008D8B9E8BAF8BB88F8D899E89AF89B88D28
:102C300089839A83AB83BC8389819A81AB81BC8170
:102C400028EE33E040E050E0BC01CD010E94E13AC3
:102C5000DA01C9018D8B9E8BAF8BB88F89819A81E8
:102C6000AB81BC8128EE33E040E050E0BC01CD01F7
:102C70000E94E13ADC01CB01898B9A8BAB8BBC8B38
:102C800089899A89AB89BC8989839A83AB83BC8300
:102C900089819A81AB81BC8124E630E040E050E03C
:102CA000BC01CD010E94E13ADA01C901898B9A8BFE
:102CB000AB8BBC8B89819A81AB81BC8124E630E0EF
:102CC00040E050E0BC01CD010E94E13ADC01CB01C3
:102CD0008D879E87AF87B88B8D859E85AF85B88998
:102CE00089839A83AB83BC8389819A81AB81BC81C0
:102CF0002AE030E040E050E0BC01CD010E94E13A22
:102D0000DA01C9018D879E87AF87B88B89819A8147
:102D1000AB81BC812AE030E040E050E0BC01CD0155
:102D20000E94E13ADC01CB0189879A87AB87BC8797
:102D30008D8D805D0E943C12898D805D0E943C12C9
:102D40008D89805D0E943C128989805D0E943C12C1
:102D50008D85805D0E943C128985805D0E943C12B9
:102D60002EC189A19AA1ABA1BCA1803422E4920713
:102D70002FE0A20720E0B20708F421C189A19AA19F
:102D8000ABA1BCA1803826E9920728E9A20720E080
:102D9000B20708F014C189A19AA1ABA1BCA120E49B
:102DA00032E44FE050E0BC01CD010E94E13ADA018B
:102DB000C9018D8F9E8FAF8FB8A389A19AA1ABA1B6
:102DC000BCA120E432E44FE050E0BC01CD010E9400
:102DD000E13ADC01CB0189839A83AB83BC8389818F
:102DE0009A81AB81BC8120EA36E841E050E0BC0129
:102DF000CD010E94E13ADA01C901898F9A8FAB8F28
:102E0000BC8F89819A81AB81BC8120EA36E841E0A0
:102E100050E0BC01CD010E94E13ADC01CB018D8B79
:102E20009E8BAF8BB88F8D899E89AF89B88D898332
:102E30009A83AB83BC8389819A81AB81BC8120E179
:102E400037E240E050E0BC01CD010E94E13ADA01F6
:102E5000C9018D8B9E8BAF8BB88F89819A81AB8195
:102E6000BC8120E137E240E050E0BC01CD010E948E
:102E7000E13ADC01CB01898B9A8BAB8BBC8B8989C6
:102E80009A89AB89BC8989839A83AB83BC83898106
:102E90009A81AB81BC8128EE33E040E050E0BC0178
:102EA000CD010E94E13ADA01C901898B9A8BAB8B83
:102EB000BC8B89819A81AB81BC8128EE33E040E0F4
:102EC00050E0BC01CD010E94E13ADC01CB018D87CD
:102ED0009E87AF87B88B8D859E85AF85B88989839E
:102EE0009A83AB83BC8389819A81AB81BC8124E6C0
:102EF00030E040E050E0BC01CD010E94E13ADA014F
:102F0000C9018D879E87AF87B88B89819A81AB81F4
:102F1000BC8124E630E040E050E0BC01CD010E94DD
:102F2000E13ADC01CB0189879A87AB87BC87898529
:102F30009A85AB85BC8589839A83AB83BC83898161
:102F40009A81AB81BC812AE030E040E050E0BC01D6
:102F5000CD010E94E13ADA01C90189879A87AB87DE
:102F6000BC8789819A81AB81BC812AE030E040E056
:102F700050E0BC01CD010E94E13ADC01CB018D8320
:102F80009E83AF83B8878D8D805D0E943C12898DB2
:102F9000805D0E943C128D89805D0E943C1289896F
:102FA000805D0E943C128D85805D0E943C12898567
:102FB000805D0E943C128D81805D0E943C12A4962F
:102FC0000FB6F894DEBF0FBECDBFCF91DF9108954D
:102FD000DF93CF93CDB7DEB761970FB6F894DEBF1E
:102FE0000FBECDBF998B888B1F8680C08F85282F01
:102FF00030E088899989FC01E20FF31F80810E94EB
:103000003C1280E090E0A0E0B0E48B879C87AD8725
:10301000BE876B857C858D859E8520E030E04AEFFC
:1030200054E40E941F02DC01CB018F839887A9879B
:10303000BA876F81788589859A8520E030E040E8FD
:103040005FE30E94790388232CF481E090E09E8363
:103050008D833FC06F81788589859A8520E03FEF19
:103060004FE757E40E94190318164CF56B857C85D1
:103070008D859E8520E030E040E251E40E941F02F1
:10308000DC01CB01BC01CD010E944900DC01CB0178
:103090009E838D830FC088EC90E09C838B838B8113
:1030A0009C810197F1F79C838B838D819E81019791
:1030B0009E838D838D819E81009769F714C06F81F7
:1030C000788589859A850E944900DC01CB019E8321
:1030D0008D838D819E819A83898389819A810197CD
:1030E000F1F79A8389838F858F5F8F878F85282F4C
:1030F00030E088899989FC01E20FF31F80818823E1
:1031000009F074CF61960FB6F894DEBF0FBECDBF45
:10311000CF91DF910895DF93CF93CDB7DEB762975C
:103120000FB6F894DEBF0FBECDBF80E091E0988B64
:103130008F8780E098E09E878D8780E090E29C8773
:103140008B8780E090E89A8789871D821E821F8284
:10315000188619821A821B821C82A3E5B0E0E3E57F
:10316000F0E0808188608C93A3E5B0E0E3E5F0E0D7
:10317000808180648C93A3E5B0E0E3E5F0E080819A
:103180008F7E8C93A3E5B0E0E3E5F0E08081806280
:103190008C93A9E5B0E0E9E5F0E080818E7F8C9327
:1031A000A9E5B0E0E9E5F0E080818D7F8C93E2E570
:1031B000F0E08091270590912805A0912905B09114
:1031C0002A05808362960FB6F894DEBF0FBECDBF8E
:1031D000CF91DF910895DF93CF930F92CDB7DEB7F4
:1031E00089838981882321F4ECE5F0E010820FC007
:1031F0008981843629F4ECE5F0E08FEF808307C005
:103200008981823321F4ECE5F0E08FE780830F9031
:10321000CF91DF910895DF93CF93CDB7DEB7A3E5CC
:10322000B0E0E3E5F0E080818E7F8C93A3E5B0E031
:10323000E3E5F0E0808182608C93A3E5B0E0E3E514
:10324000F0E080818B7F8C93CF91DF910895DF93A5
:10325000CF93CDB7DEB7A3E5B0E0E3E5F0E0808142
:103260008E7F8C93A3E5B0E0E3E5F0E080818D7F75
:103270008C93A3E5B0E0E3E5F0E080818B7F8C9355
:10328000CF91DF910895DF93CF93CDB7DEB7AFE451
:10329000B0E0EFE4F0E080818E7F8C93AFE4B0E0AB
:1032A000EFE4F0E0808182608C93AEE4B0E0EEE485
:1032B000F0E0808188608C93AEE4B0E0EEE4F0E072
:1032C000808180618C93AFE4B0E0EFE4F0E0808136
:1032D0008F7B8C93AFE4B0E0EFE4F0E08081806816
:1032E0008C93CF91DF910895DF93CF93CDB7DEB765
:1032F000AEE4B0E0EEE4F0E080818E7F8C93AEE44B
:10330000B0E0EEE4F0E080818D7F8C93AEE4B0E03D
:10331000EEE4F0E080818B7F8C93CF91DF91089574
:10332000DF93CF93CDB7DEB7AEE4B0E0EEE4F0E0EC
:1033300080818E7F8C93AEE4B0E0EEE4F0E080819B
:1033400082608C93AEE4B0E0EEE4F0E080818B7FAD
:103350008C93CF91DF910895DF93CF9300D0CDB7B9
:10336000DEB79A838983E6E4F0E089819A819183CC
:1033700080830F900F90CF91DF910895DF93CF93CB
:1033800000D0CDB7DEB79A83898389819A8100976F
:1033900031F089819A8190931F0580931E050F90CB
:1033A0000F90CF91DF910895DF93CF9300D0CDB7E9
:1033B000DEB79A83898389819A81009731F0898168
:1033C0009A8190932105809320050F900F90CF91C3
:1033D000DF910895DF93CF93CDB7DEB7AAE2B0E0D7
:1033E000EAE2F0E0808180618C93AAE2B0E0EAE258
:1033F000F0E0808188608C93AAE2B0E0EAE2F0E03D
:1034000080818B7F8C93E0E4F0E086E88083ABE200
:10341000B0E0EBE2F0E080818D7F8C93E0E4F0E0BF
:103420001082E9E2F0E083E38083CF91DF91089599
:10343000DF93CF930F92CDB7DEB78983ECE2F0E054
:1034400089818083EBE2F0E08081829586958770A8
:10345000882F90E0817090700097A1F30F90CF912A
:10346000DF910895DF93CF9300D0CDB7DEB79A8375
:10347000898389819A81009791F0EBE2F0E0808165
:103480008823DCF7ECE2F0E08081E981FA81808337
:10349000ABE2B0E0EBE2F0E080818F778C930F90AD
:1034A0000F90CF91DF9108951F920F920FB60F9258
:1034B00011242F933F934F935F936F937F938F9339
:1034C0009F93AF93BF93EF93FF93DF93CF93CDB7CA
:1034D000DEB780912F058F5F80932F0590912F0588
:1034E00080913005981780F4ACE2B0E020912B0574
:1034F00030912C0580912F05882F90E0F901E80F7D
:10350000F91F80818C930CC0AAE2B0E0EAE2F0E0FF
:1035100080818F7B8C93E0912D05F0912E0509958C
:10352000CF91DF91FF91EF91BF91AF919F918F91DB
:103530007F916F915F914F913F912F910F900FBEAF
:103540000F901F901895DF93CF93CDB7DEB7EBE2C6
:10355000F0E080818823DCF7ECE2F0E08081CF911D
:10356000DF910895DF93CF9300D00F92CDB7DEB7F0
:103570009B838A8319820EC08981282F30E08A813B
:103580009B81FC01E20FF31F80810E94181A898140
:103590008F5F89838981282F30E08A819B81FC019C
:1035A000E20FF31F8081882339F70F900F900F905F
:1035B000CF91DF910895DF93CF9300D000D0CDB7A6
:1035C000DEB79C838B838B819C81009721F480E301
:1035D0000E94181A31C08B819C81009751F08B8119
:1035E0009C818A30910528F48B81805D0E94181A95
:1035F00023C08B819C818A309105F0F08B819C8166
:1036000084369105C8F48B819C812AE030E0B901B1
:103610000E94CD3ACB018A838B819C812AE030E0E5
:10362000B9010E94CD3A89838A81805D0E94181A6F
:103630008981805D0E94181A0F900F900F900F9053
:10364000CF91DF910895DF93CF93CDB7DEB7A297E7
:103650000FB6F894DEBF0FBECDBF0E94440F0E948C
:10366000EA190E94710D82E067E041E00E949F0923
:1036700082E066E041E00E949F0981E063E041E072
:103680000E949F0983E065E041E00E949F098FE16D
:103690009EE40E94AC190E9443190E948B180E945C
:1036A000E12F0E9406301F8E1E8E82E066E040E011
:1036B0000E94C20A90C00E942B130E94A31A8D8FF1
:1036C0008D8D883709F087C00E942B1381E08E8F83
:1036D00082E066E041E00E94C20A80E690E00E943B
:1036E000B21A87E790E00E94B21A8FE890E00E9439
:1036F000E81780E090E0AAE7B4E4898F9A8FAB8F57
:10370000BC8F698D7A8D8B8D9C8D20E030E04AEFE7
:1037100054E40E941F02DC01CB018D8B9E8BAF8B8A
:10372000B88F6D897E898F89988D20E030E040E8E0
:103730005FE30E94790388232CF481E090E09C8B66
:103740008B8B3FC06D897E898F89988D20E03FEFFC
:103750004FE757E40E94190318164CF5698D7A8DCE
:103760008B8D9C8D20E030E040E251E40E941F02EE
:10377000DC01CB01BC01CD010E944900DC01CB0181
:103780009C8B8B8B0FC088EC90E09A8B898B8989FE
:103790009A890197F1F79A8B898B8B899C8901977C
:1037A0009C8B8B8B8B899C89009769F714C06D89E2
:1037B0007E898F89988D0E944900DC01CB019C8B0A
:1037C0008B8B8B899C89988B8F878F8598890197A4
:1037D000F1F7988B8F878E8D882309F46CCF1E8E1E
:1037E000C0C080E690E00E94B21A8AE990E00E9490
:1037F000B21A0E942B1380EC90E00E94E81780E040
:1038000061E00E9413138FEC90E00E94E8170E9481
:10381000A31A88A3CE0180960E94B71C88A1282FE6
:1038200030E03AA329A389A19AA18230910591F0B1
:1038300029A13AA12330310591F089A19AA18130C3
:10384000910509F08EC00E942B130E94CA1C109291
:10385000310587C00E942B130E94BA1F82C00E94AC
:103860002B1381E08F8F80E690E00E94B21A8CEDDE
:1038700090E00E94B21A8CED90E00E94E81780E080
:1038800090E0AAE7B4E48B879C87AD87BE876B8501
:103890007C858D859E8520E030E04AEF54E40E94CF
:1038A0001F02DC01CB018F839887A987BA876F81BC
:1038B000788589859A8520E030E040E85FE30E94C2
:1038C000790388232CF481E090E09E838D833FC0B0
:1038D0006F81788589859A8520E03FEF4FE757E42F
:1038E0000E94190318164CF56B857C858D859E8585
:1038F00020E030E040E251E40E941F02DC01CB01F5
:10390000BC01CD010E944900DC01CB019E838D8367
:103910000FC088EC90E09C838B838B819C81019706
:10392000F1F79C838B838D819E8101979E838D838C
:103930008D819E81009769F714C06F817885898594
:103940009A850E944900DC01CB019E838D838D8185
:103950009E819A83898389819A810197F1F79A835D
:1039600089838F8D882309F43CCF1F8E9ECEDF93F1
:10397000CF9300D0CDB7DEB79A838983E981FA81EE
:1039800080818053E981FA8180830F900F90CF91DD
:10399000DF910895DF93CF93CDB7DEB7C854D04001
:1039A0000FB6F894DEBF0FBECDBFFE01FF9681E0DB
:1039B0008083FE01FF9682E08183FE01FF9683E013
:1039C0008283FE01FF9684E08383FE01ED5BFF4F5F
:1039D00010821182128213821DAE1BAE81E08AAF6B
:1039E00019AE8AEE90E00E94B21A81E091E00E9446
:1039F000E81785E061E00E941313EAC10E94A31A50
:103A00008EAFCE01CE960E94B71C8EAD882311F1E9
:103A10008EAD8A30F8F48DAD8430E0F48DAD282F72
:103A200030E04EADCE018D5B9F4FFC01E20FF31FE6
:103A300040838DAD282F30E0CE018D5B9F4FFC0180
:103A4000E20FF31F8081805D0E943C128DAD8F5F7D
:103A50008DAF1EAE8DAD843088F280E090E0AAEF8D
:103A6000B3E48DAB9EABAFABB8AF6DA97EA98FA908
:103A700098AD20E030E04AEF54E40E941F02DC01E0
:103A8000CB0189AB9AABABABBCAB69A97AA98BA9CB
:103A90009CA920E030E040E85FE30E94790388239E
:103AA0002CF481E090E098AB8FA73FC069A97AA978
:103AB0008BA99CA920E03FEF4FE757E40E94190330
:103AC00018164CF56DA97EA98FA998AD20E030E0BD
:103AD00040E251E40E941F02DC01CB01BC01CD0198
:103AE0000E944900DC01CB0198AB8FA70FC088EC86
:103AF00090E09EA78DA78DA59EA50197F1F79EA7A3
:103B00008DA78FA598A9019798AB8FA78FA598A986
:103B1000009769F714C069A97AA98BA99CA90E948A
:103B20004900DC01CB0198AB8FA78FA598A99CA772
:103B30008BA78BA59CA50197F1F79CA78BA78DADB3
:103B40008430F9F41CAE1AC08CAD282F30E0CE01C1
:103B5000CF96FC01E20FF31F40818CAD282F30E09F
:103B6000CE018D5B9F4FFC01E20FF31F8081481750
:103B700011F081E08BAF8CAD8F5F8CAF8CAD84305A
:103B800018F38BAD813009F098C00E942B1380E6AA
:103B900090E00E94B21A82E191E00E94B21A82E1A2
:103BA00091E00E94E8171BAE1DAE89AD8F5F89AF13
:103BB00080E090E4ACE1B5E48FA398A7A9A7BAA7E9
:103BC0006FA178A589A59AA520E030E04AEF54E4DA
:103BD0000E941F02DC01CB018BA39CA3ADA3BEA35B
:103BE0006BA17CA18DA19EA120E030E040E85FE3C5
:103BF0000E94790388232CF481E090E09AA389A3A2
:103C00003FC06BA17CA18DA19EA120E03FEF4FE7BB
:103C100057E40E94190318164CF56FA178A589A5E1
:103C20009AA520E030E040E251E40E941F02DC014E
:103C3000CB01BC01CD010E944900DC01CB019AA35C
:103C400089A30FC088EC90E098A38F8F8F8D98A1E7
:103C50000197F1F798A38F8F89A19AA101979AA351
:103C600089A389A19AA1009769F714C06BA17CA1CF
:103C70008DA19EA10E944900DC01CB019AA389A3DA
:103C800089A19AA19E8F8D8F8D8D9E8D0197F1F7C1
:103C90009E8F8D8F0E942B1380E690E00E94B21AB7
:103CA0008DE191E00E94B21A8DE191E00E94E81747
:103CB00085E061E00E94131302C084E089AF89AD02
:103CC000833009F085C00E942B1380E690E00E94AB
:103CD000B21A8DE291E00E94B21A86E391E00E944E
:103CE000E81780E090E0AAE7B4E4898F9A8FAB8F61
:103CF000BC8F698D7A8D8B8D9C8D20E030E04AEFF2
:103D000054E40E941F02DC01CB018D8B9E8BAF8B94
:103D1000B88F6D897E898F89988D20E030E040E8EA
:103D20005FE30E94790388232CF481E090E09C8B70
:103D30008B8B3FC06D897E898F89988D20E03FEF06
:103D40004FE757E40E94190318164CF5698D7A8DD8
:103D50008B8D9C8D20E030E040E251E40E941F02F8
:103D6000DC01CB01BC01CD010E944900DC01CB018B
:103D70009C8B8B8B0FC088EC90E09A8B898B898908
:103D80009A890197F1F79A8B898B8B899C89019786
:103D90009C8B8B8B8B899C89009769F714C06D89EC
:103DA0007E898F89988D0E944900DC01CB019C8B14
:103DB0008B8B8B899C89988B8F878F8598890197AE
:103DC000F1F7988B8F870E940F251AAE84E089AF98
:103DD00089AD843008F43ECE0E942B13BDC0809183
:103DE0003105813009F4BCC00E942B1380E690E0BD
:103DF0000E94B21A8FE391E00E94B21A8FE591E01F
:103E00000E94E81780E090E0AAE7B4E48B879C87E3
:103E1000AD87BE876B857C858D859E8520E030E0F3
:103E20004AEF54E40E941F02DC01CB018F83988784
:103E3000A987BA876F81788589859A8520E030E0E7
:103E400040E85FE30E94790388232CF481E090E04E
:103E50009E838D833FC06F81788589859A8520E018
:103E60003FEF4FE757E40E94190318164CF56B8596
:103E70007C858D859E8520E030E040E251E40E9403
:103E80001F02DC01CB01BC01CD010E944900DC0115
:103E9000CB019E838D830FC088EC90E09C838B8345
:103EA0008B819C810197F1F79C838B838D819E810F
:103EB00001979E838D838D819E81009769F714C041
:103EC0006F81788589859A850E944900DC01CB0144
:103ED0009E838D838D819E819A83898389819A8136
:103EE0000197F1F79A8389830E942B138DE691E065
:103EF0000E94E81780E061E00E94131388E791E0D8
:103F00000E94E8170E94A31A8EAFCE01CE960E949F
:103F1000B71C8EAD282F30E029963FAF2EAF2997E2
:103F200029968EAD9FAD29978230910589F029960B
:103F30002EAD3FAD29972330310569F029968EAD1E
:103F40009FAD29978130910539F40E94283004C033
:103F50000E94E33101C01AAE8AAD813009F43FCF2F
:103F6000C85BDF4F0FB6F894DEBF0FBECDBFCF9159
:103F7000DF9108950F931F93DF93CF93CDB7DEB7F3
:103F8000CF55D0400FB6F894DEBF0FBECDBFFE01B7
:103F9000E65AFF4F1082FE01E85AFF4F1082FE01E1
:103FA000E95AFF4F1082FE01EB5AFF4F1082FE01CB
:103FB000EA5AFF4F10821EC0FE01EA5AFF4F80816D
:103FC000882F90E0FC01E45CFA4F8081813049F455
:103FD000DE01AB5ABF4FFE01EB5AFF4F80818F5F6E
:103FE0008C93DE01AA5ABF4FFE01EA5AFF4F80812F
:103FF0008F5F8C93FE01EA5AFF4F80818A30E0F296
:10400000FE01EB5AFF4F80818A3009F0C2C00E9446
:104010002B1380E690E00E94B21A86E891E00E949D
:10402000B21A8AE991E00E94E817FE01EF5AFF4FA9
:1040300080E090E0AAE7B4E480839183A283B38315
:104040008E01035B1F4FFE01EF5AFF4F60817181AC
:104050008281938120E030E04AEF54E40E941F0205
:10406000DC01CB01F80180839183A283B383FE013D
:10407000E35BFF4F608171818281938120E030E0BA
:1040800040E85FE30E947903882344F4FE01E55B86
:10409000FF4F81E090E09183808364C0FE01E35B89
:1040A000FF4F608171818281938120E03FEF4FE774
:1040B00057E40E94190318160CF043C0FE01EF5A92
:1040C000FF4F608171818281938120E030E040E286
:1040D00051E40E941F02DC01CB018E01055B1F4FE2
:1040E000BC01CD010E944900DC01CB01F8019183A4
:1040F00080831FC0FE01E75BFF4F88EC90E0918357
:104100008083FE01E75BFF4F808191810197F1F78A
:10411000FE01E75BFF4F91838083DE01A55BBF4F0C
:10412000FE01E55BFF4F80819181019711969C9381
:104130008E93FE01E55BFF4F808191810097D1F660
:1041400028C08E01055B1F4FFE01E35BFF4F6081BE
:104150007181828193810E944900DC01CB01F801C9
:1041600091838083DE01A95BBF4FFE01E55BFF4FBA
:104170008081918111969C938E93FE01E95BFF4FA4
:10418000808191810197F1F7FE01E95BFF4F9183F7
:104190008083FE01EB5AFF4F80818A3009F433C4DB
:1041A0000E942B1380E690E00E94B21A83EA91E00D
:1041B0000E94B21A83EA91E00E94E817FE01ED5BCB
:1041C000FF4F80E090E0AAE7B4E480839183A2836C
:1041D000B3838E01015C1F4FFE01ED5BFF4F6081D9
:1041E00071818281938120E030E04AEF54E40E94A3
:1041F0001F02DC01CB01F80180839183A283B3838A
:10420000FE01FF96608171818281938120E030E020
:1042100040E85FE30E94790388232CF481E090E07A
:104220009EAF8DAF46C0FE01FF9660817181828195
:10423000938120E03FEF4FE757E40E9419031816DF
:1042400064F5FE01ED5BFF4F608171818281938196
:1042500020E030E040E251E40E941F02DC01CB018B
:10426000BC01CD010E944900DC01CB019EAF8DAFA6
:104270000FC088EC90E09CAF8BAF8BAD9CAD0197ED
:10428000F1F79CAF8BAF8DAD9EAD01979EAF8DAF1B
:104290008DAD9EAD009769F716C0FE01FF96608157
:1042A0007181828193810E944900DC01CB019EAF24
:1042B0008DAF8DAD9EAD9AAF89AF89AD9AAD0197A7
:1042C000F1F79AAF89AF0E942B1380E690E00E942D
:1042D000B21A80EB91E00E94B21A8BED91E00E943D
:1042E000E81780E061E00E94131387EE91E00E94DE
:1042F000E81780E090E0AAE7B4E48DAB9EABAFABEB
:10430000B8AF6DA97EA98FA998AD20E030E04AEF43
:1043100054E40E941F02DC01CB0189AB9AABABAB2A
:10432000BCAB69A97AA98BA99CA920E030E040E840
:104330005FE30E94790388232CF481E090E098AB3E
:104340008FA73FC069A97AA98BA99CA920E03FEF5C
:104350004FE757E40E94190318164CF56DA97EA982
:104360008FA998AD20E030E040E251E40E941F02A6
:10437000DC01CB01BC01CD010E944900DC01CB0175
:1043800098AB8FA70FC088EC90E09EA78DA78DA556
:104390009EA50197F1F79EA78DA78FA598A90197D4
:1043A00098AB8FA78FA598A9009769F714C069A942
:1043B0007AA98BA99CA90E944900DC01CB0198AB8A
:1043C0008FA78FA598A99CA78BA78BA59CA50197C4
:1043D000F1F79CA78BA7FE01E65AFF4F8081882347
:1043E00009F013C20E942B1380E690E00E94B21ADB
:1043F00084EF91E00E94B21A84EF91E00E94E817E6
:104400000E94A31AFE01E45AFF4F8083CE01845A12
:104410009F4F0E94B71CFE01E45AFF4F8081882FF6
:1044200090E00E94DB1AFE01E45AFF4F8081882F42
:1044300090E0A0E0B0E0BC01CD010E944913FE0174
:10444000E45AFF4F8081813009F0FBC00E94A31A1B
:10445000FE01E45AFF4F8083CE01845A9F4F0E9491
:10446000B71CFE01E45AFF4F8081882309F0D8C0B1
:10447000FE01E45AFF4F8081882F90E00E94DB1AF2
:10448000FE01E45AFF4F8081882F90E0A0E0B0E069
:10449000BC01CD010E944913FE01E55AFF4F8AE09D
:1044A0008083B6C00E94A31AFE01E45AFF4F8083A6
:1044B000CE01845A9F4F0E94B71CFE01E45AFF4F61
:1044C0008081833059F4FE01E65AFF4F81E08083FA
:1044D000FE01E85AFF4F81E080839AC00E942B13AF
:1044E00080E690E00E94B21A8DEF91E00E94B21A2D
:1044F0008DEF91E00E94E81780E090E0AAE7B4E435
:104500008FA398A7A9A7BAA76FA178A589A59AA5EF
:1045100020E030E04AEF54E40E941F02DC01CB01AE
:104520008BA39CA3ADA3BEA36BA17CA18DA19EA1D7
:1045300020E030E040E85FE30E94790388232CF418
:1045400081E090E09AA389A33FC06BA17CA18DA1DB
:104550009EA120E03FEF4FE757E40E941903181691
:104560004CF56FA178A589A59AA520E030E040E23E
:1045700051E40E941F02DC01CB01BC01CD010E946D
:104580004900DC01CB019AA389A30FC088EC90E01D
:1045900098A38F8F8F8D98A10197F1F798A38F8F94
:1045A00089A19AA101979AA389A389A19AA10097A9
:1045B00069F714C06BA17CA18DA19EA10E94490046
:1045C000DC01CB019AA389A389A19AA19E8F8D8F2B
:1045D0008D8D9E8D0197F1F79E8F8D8F0E942B13ED
:1045E00080E690E00E94B21A84EF91E00E94B21A35
:1045F00084EF91E00E94E817FE01E55AFF4F8081A9
:10460000882F90E0A0E0B0E0BC01CD010E944913EA
:10461000FE01E85AFF4F8081882309F443CFF5C09B
:10462000FE01E45AFF4F8081833059F4FE01E55AC0
:10463000FF4F81E08083FE01E65AFF4F81E08083D7
:10464000E4C0DE01A55ABF4FFE01E45AFF4F80814E
:104650008C930E94A31AFE01E45AFF4F8083CE017F
:10466000845A9F4F0E94B71CFE01E45AFF4F80817D
:10467000833009F0C3C0FE01E65AFF4F81E080831A
:10468000C4C00E942B1380E690E00E94B21A8DEF06
:1046900091E00E94B21A8DEF91E00E94E81780E04D
:1046A00090E0AAE7B4E4898F9A8FAB8FBC8F698DB5
:1046B0007A8D8B8D9C8D20E030E04AEF54E40E948F
:1046C0001F02DC01CB018D8B9E8BAF8BB88F6D8968
:1046D0007E898F89988D20E030E040E85FE30E947A
:1046E000790388232CF481E090E09C8B8B8B3FC076
:1046F0006D897E898F89988D20E03FEF4FE757E4E1
:104700000E94190318164CF5698D7A8D8B8D9C8D3E
:1047100020E030E040E251E40E941F02DC01CB01C6
:10472000BC01CD010E944900DC01CB019C8B8B8B2D
:104730000FC088EC90E09A8B898B89899A890197C0
:10474000F1F79A8B898B8B899C8901979C8B8B8B3A
:104750008B899C89009769F714C06D897E898F8940
:10476000988D0E944900DC01CB019C8B8B8B8B893F
:104770009C89988B8F878F8598890197F1F7988B03
:104780008F870E942B1380E690E00E94B21A84EF7C
:1047900091E00E94B21A84EF91E00E94E817FE01B6
:1047A000E55AFF4F8081882F90E00E94DB1AFE01BE
:1047B000E55AFF4F8081882F90E0A0E0B0E0BC0177
:1047C000CD010E9449130E94A31AFE01E45AFF4F33
:1047D0008083CE01845A9F4F0E94B71CFE01E45A89
:1047E000FF4F8081833051F4FE01E85AFF4F81E092
:1047F0008083FE01E65AFF4F81E08083FE01E85A84
:10480000FF4F8081882309F43CCFFE01E65AFF4F19
:104810008081813009F0F7C0FE01E55AFF4F8081A9
:104820000E94C425FE01E75AFF4F8083FE01E75A2C
:10483000FF4F8081813009F0E6C00E942B1380E693
:1048400090E00E94B21A89E092E00E94B21A89E0D8
:1048500092E00E94E81780E090E0AAE7B4E48B873A
:104860009C87AD87BE876B857C858D859E8520E086
:1048700030E04AEF54E40E941F02DC01CB018F8339
:104880009887A987BA876F81788589859A8520E07E
:1048900030E040E85FE30E94790388232CF481E054
:1048A00090E09E838D833FC06F81788589859A854E
:1048B00020E03FEF4FE757E40E94190318164CF52C
:1048C0006B857C858D859E8520E030E040E251E45B
:1048D0000E941F02DC01CB01BC01CD010E944900F6
:1048E000DC01CB019E838D830FC088EC90E09C831C
:1048F0008B838B819C810197F1F79C838B838D81C6
:104900009E8101979E838D838D819E81009769F79B
:1049100073C06F81788589859A850E944900DC0182
:10492000CB019E838D838D819E819A83898389812A
:104930009A810197F1F79A8389835EC00E942B13B5
:1049400080E690E00E94B21A82E192E00E94B21AE0
:104950008EE392E00E94E81780E061E00E9413136A
:104960008BE492E00E94E8170E94A31AFE01E35A2A
:10497000FF4F8083CE01835A9F4F0E94B71CFE01D8
:10498000E35AFF4F8081282F30E0A0963FAF2EAF33
:10499000A097A0968EAD9FADA0978230910509F1AA
:1049A000A096EEADFFADA097E330F10544F4A096DC
:1049B0002EAD3FADA0972130310581F01DC0A096EE
:1049C0008EAD9FADA0978330910571F0A096EEADAE
:1049D000FFADA097E430F10551F00EC00E94232BEB
:1049E0000BC00E94A32C08C00E94602C05C0FE01D1
:1049F000E95AFF4F81E08083FE01E95AFF4F808131
:104A0000882309F49BCFC15ADF4F0FB6F894DEBF5D
:104A10000FBECDBFCF91DF911F910F910895DF930E
:104A2000CF93CDB7DEB72E970FB6F894DEBF0FBE8B
:104A3000CDBF0E942B1383E592E00E94E81785E02A
:104A40008093470593C08EE060E00E94131380912D
:104A50004705882F90E0A0E0B0E0BC01CD010E94A6
:104A6000491380E690E00E94B21A83E592E00E942A
:104A7000B21A80914705882F90E00E94DB1A80E0EF
:104A800090E0AAE7B4E48B879C87AD87BE876B85EF
:104A90007C858D859E8520E030E04AEF54E40E94BD
:104AA0001F02DC01CB018F839887A987BA876F81AA
:104AB000788589859A8520E030E040E85FE30E94B0
:104AC000790388232CF481E090E09E838D833FC09E
:104AD0006F81788589859A8520E03FEF4FE757E41D
:104AE0000E94190318164CF56B857C858D859E8573
:104AF00020E030E040E251E40E941F02DC01CB01E3
:104B0000BC01CD010E944900DC01CB019E838D8355
:104B10000FC088EC90E09C838B838B819C810197F4
:104B2000F1F79C838B838D819E8101979E838D837A
:104B30008D819E81009769F714C06F817885898582
:104B40009A850E944900DC01CB019E838D838D8173
:104B50009E819A83898389819A810197F1F79A834B
:104B6000898380914705815080934705809147054F
:104B7000882309F068CF2E960FB6F894DEBF0FBEDB
:104B8000CDBFCF91DF9108950F931F93DF93CF9304
:104B9000CDB7DEB7C157D0400FB6F894DEBF0FBE19
:104BA000CDBFFE01E159FF4F80830E942B13FE0110
:104BB000E659FF4F1082118212821382FE01E859DA
:104BC000FF4F1082FE01EA59FF4F1082FE01EB59A0
:104BD000FF4F1082FE01EC59FF4F1082FE01E15998
:104BE000FF4F8081882F90E00197DE01A759BF4FCA
:104BF000FC01EE5CFA4F80818C93FE01E159FF4F7E
:104C00008081882F90E00197FC01E45CFA4F80815D
:104C1000823009F080C480E690E00E94B21A81E6FA
:104C200092E00E94B21A81E692E00E94E817FE012B
:104C3000E15AFF4F80E090E0AAE7B4E480839183DB
:104C4000A283B3838E01055A1F4FFE01E15AFF4F25
:104C5000608171818281938120E030E04AEF54E4E9
:104C60000E941F02DC01CB01F80180839183A283A3
:104C7000B383FE01E55AFF4F608171818281938188
:104C800020E030E040E85FE30E947903882344F4A9
:104C9000FE01E75AFF4F81E090E09183808364C07A
:104CA000FE01E55AFF4F608171818281938120E08E
:104CB0003FEF4FE757E40E94190318160CF043C06A
:104CC000FE01E15AFF4F608171818281938120E072
:104CD00030E040E251E40E941F02DC01CB018E0172
:104CE000075A1F4FBC01CD010E944900DC01CB01D6
:104CF000F801918380831FC0FE01E95AFF4F88ECC1
:104D000090E091838083FE01E95AFF4F8081918179
:104D10000197F1F7FE01E95AFF4F91838083DE018D
:104D2000A75ABF4FFE01E75AFF4F8081918101973B
:104D300011969C938E93FE01E75AFF4F80819181DB
:104D40000097D1F6C0C28E01075A1F4FFE01E55AE7
:104D5000FF4F60817181828193810E944900DC0153
:104D6000CB01F80191838083DE01AB5ABF4FFE0176
:104D7000E75AFF4F8081918111969C938E93FE019B
:104D8000EB5AFF4F808191810197F1F7FE01EB5AB9
:104D9000FF4F9183808397C20E942B1380E690E09F
:104DA0000E94B21A8CE692E00E94B21A8DE191E064
:104DB0000E94E81785E061E00E9413133AC00E9448
:104DC000A31AFE01E259FF4F8083CE0182599F4F03
:104DD0000E94B71CFE01E859FF4F8081282F30E068
:104DE000FE01E259FF4F4081CE0186599F4FFC01E1
:104DF000E20FF31F4083FE01E859FF4F8081282F07
:104E000030E0CE0186599F4FFC01E20FF31F8081F5
:104E1000882F90E0A0E0B0E0BC01CD010E944913D2
:104E2000DE01A859BF4FFE01E859FF4F80818F5F17
:104E30008C93FE01E859FF4F8081843008F4BFCF86
:104E4000FE01EF5AFF4F80E090E0AAE7B4E48083D0
:104E50009183A283B3838E01035B1F4FFE01EF5A40
:104E6000FF4F608171818281938120E030E04AEFC1
:104E700054E40E941F02DC01CB01F801808391837E
:104E8000A283B383FE01E35BFF4F60817181828166
:104E9000938120E030E040E85FE30E9479038823BB
:104EA00044F4FE01E55BFF4F81E090E09183808355
:104EB00064C0FE01E35BFF4F608171818281938159
:104EC00020E03FEF4FE757E40E94190318160CF05B
:104ED00043C0FE01EF5AFF4F60817181828193814F
:104EE00020E030E040E251E40E941F02DC01CB01EF
:104EF0008E01055B1F4FBC01CD010E944900DC0102
:104F0000CB01F801918380831FC0FE01E75BFF4F57
:104F100088EC90E091838083FE01E75BFF4F808106
:104F200091810197F1F7FE01E75BFF4F9183808349
:104F3000DE01A55BBF4FFE01E55BFF4F80819181E4
:104F4000019711969C938E93FE01E55BFF4F808144
:104F500091810097D1F628C08E01055B1F4FFE019D
:104F6000E35BFF4F60817181828193810E944900E0
:104F7000DC01CB01F80191838083DE01A95BBF4F87
:104F8000FE01E55BFF4F8081918111969C938E938A
:104F9000FE01E95BFF4F808191810197F1F7FE01EE
:104FA000E95BFF4F91838083FE01E959FF4F108237
:104FB000BEC0FE01E759FF4F8081282F30E0FE017F
:104FC000E959FF4F8081882F90E0820F931F0E9444
:104FD0009C0DFE01ED59FF4F8083FE01ED5BFF4FFD
:104FE00080E090E0A8E4B2E480839183A283B3835D
:104FF0008E01015C1F4FFE01ED5BFF4F60817181EF
:105000008281938120E030E04AEF54E40E941F0245
:10501000DC01CB01F80180839183A283B383FE017D
:10502000FF96608171818281938120E030E040E8C9
:105030005FE30E94790388232CF481E090E09EAF27
:105040008DAF46C0FE01FF966081718182819381A0
:1050500020E03FEF4FE757E40E941903181664F56C
:10506000FE01ED5BFF4F608171818281938120E0C1
:1050700030E040E251E40E941F02DC01CB01BC01A0
:10508000CD010E944900DC01CB019EAF8DAF0FC066
:1050900088EC90E09CAF8BAF8BAD9CAD0197F1F7A6
:1050A0009CAF8BAF8DAD9EAD01979EAF8DAF8DAD9B
:1050B0009EAD009769F716C0FE01FF966081718171
:1050C000828193810E944900DC01CB019EAF8DAFAC
:1050D0008DAD9EAD9AAF89AF89AD9AAD0197F1F7CD
:1050E0009AAF89AFFE01E959FF4F8081282F30E048
:1050F000CE0186599F4FFC01E20FF31F9081FE0104
:10510000ED59FF4F8081981749F4DE01AA59BF4F2E
:10511000FE01EA59FF4F80818F5F8C93DE01A95910
:10512000BF4FFE01E959FF4F80818F5F8C93FE01D5
:10513000E959FF4F8081843008F43BCFFE01EA59E2
:10514000FF4F8081843031F4FE01EB59FF4F81E045
:105150008083C0C0FE01EB59FF4F1082FE01EA5967
:10516000FF4F1082FE01E859FF4F1082DE01AC595B
:10517000BF4FFE01EC59FF4F80818F5F8C930E94DF
:105180002B1380E690E00E94B21A82E191E00E9427
:10519000B21A82E191E00E94E81785E061E00E9486
:1051A0001313FE01EC59FF4F8081882F90E0A0E09F
:1051B000B0E0BC01CD010E94491380E690E00E945E
:1051C000B21AFE01EC59FF4F8081882F90E00E94B7
:1051D000DB1A80E892E00E94B21A80E892E00E9416
:1051E000E81780E090E0AAE7B4E48DAB9EABAFABEC
:1051F000B8AF6DA97EA98FA998AD20E030E04AEF45
:1052000054E40E941F02DC01CB0189AB9AABABAB2B
:10521000BCAB69A97AA98BA99CA920E030E040E841
:105220005FE30E94790388232CF481E090E098AB3F
:105230008FA73FC069A97AA98BA99CA920E03FEF5D
:105240004FE757E40E94190318164CF56DA97EA983
:105250008FA998AD20E030E040E251E40E941F02A7
:10526000DC01CB01BC01CD010E944900DC01CB0176
:1052700098AB8FA70FC088EC90E09EA78DA78DA557
:105280009EA50197F1F79EA78DA78FA598A90197D5
:1052900098AB8FA78FA598A9009769F714C069A943
:1052A0007AA98BA99CA90E944900DC01CB0198AB8B
:1052B0008FA78FA598A99CA78BA78BA59CA50197C5
:1052C000F1F79CA78BA7FE01EC59FF4F808183303B
:1052D00008F462CDFE01EB59FF4F8081813009F067
:1052E00085C00E942B1380E690E00E94B21A83E8EA
:1052F00092E00E94B21A82E992E00E94E81780E0F0
:1053000090E0AAE7B4E48FA398A7A9A7BAA76FA1D2
:1053100078A589A59AA520E030E04AEF54E40E94E0
:105320001F02DC01CB018BA39CA3ADA3BEA36BA189
:105330007CA18DA19EA120E030E040E85FE30E94C7
:10534000790388232CF481E090E09AA389A33FC0DD
:105350006BA17CA18DA19EA120E03FEF4FE757E418
:105360000E94190318164CF56FA178A589A59AA576
:1053700020E030E040E251E40E941F02DC01CB015A
:10538000BC01CD010E944900DC01CB019AA389A395
:105390000FC088EC90E098A38F8F8F8D98A1019714
:1053A000F1F798A38F8F89A19AA101979AA389A356
:1053B00089A19AA1009769F714C06BA17CA18DA166
:1053C0009EA10E944900DC01CB019AA389A389A177
:1053D0009AA19E8F8D8F8D8D9E8D0197F1F79E8F57
:1053E0008D8FF1E0E196FFAFE19718C1FE01EB5917
:1053F000FF4F8081882309F08DC0FE01EC59FF4FDB
:105400008081833009F086C00E942B1380E690E0F3
:105410000E94B21A80EA92E00E94B21A80EA92E0F8
:105420000E94E81780E090E0AAE7B4E4898F9A8FA1
:10543000AB8FBC8F698D7A8D8B8D9C8D20E030E099
:105440004AEF54E40E941F02DC01CB018D8B9E8B3E
:10545000AF8BB88F6D897E898F89988D20E030E081
:1054600040E85FE30E94790388232CF481E090E018
:105470009C8B8B8B3FC06D897E898F89988D20E0B6
:105480003FEF4FE757E40E94190318164CF5698D5A
:105490007A8D8B8D9C8D20E030E040E251E40E94BB
:1054A0001F02DC01CB01BC01CD010E944900DC01DF
:1054B000CB019C8B8B8B0FC088EC90E09A8B898BF7
:1054C00089899A890197F1F79A8B898B8B899C89B5
:1054D00001979C8B8B8B8B899C89009769F714C0F3
:1054E0006D897E898F89988D0E944900DC01CB01EE
:1054F0009C8B8B8B8B899C89988B8F878F859889C8
:105500000197F1F7988B8F870E940F25E1961FAEC8
:10551000E19784C089C00E942B1380E690E00E942E
:10552000B21A8AEA92E00E94B21A89EB92E00E94D3
:10553000E81780E090E0AAE7B4E48B879C87AD870A
:10554000BE876B857C858D859E8520E030E04AEFA7
:1055500054E40E941F02DC01CB018F839887A98746
:10556000BA876F81788589859A8520E030E040E8A8
:105570005FE30E94790388232CF481E090E09E830E
:105580008D833FC06F81788589859A8520E03FEFC4
:105590004FE757E40E94190318164CF56B857C857C
:1055A0008D859E8520E030E040E251E40E941F029C
:1055B000DC01CB01BC01CD010E944900DC01CB0123
:1055C0009E838D830FC088EC90E09C838B838B81BE
:1055D0009C810197F1F79C838B838D819E8101973C
:1055E0009E838D838D819E81009769F714C06F81A2
:1055F000788589859A850E944900DC01CB019E83CC
:105600008D838D819E819A83898389819A81019777
:10561000F1F79A838983E1961FAEE197E1968FAD0A
:10562000E197E2968FAFE297E2968FADE297CF587F
:10563000DF4F0FB6F894DEBF0FBECDBFCF91DF9125
:105640001F910F910895DF93CF93CDB7DEB76E977B
:105650000FB6F894DEBF0FBECDBF1D8E0E942B1378
:1056600080E690E00E94B21A88EC92E00E94B21AA2
:105670008EED92E00E94E81780E061E00E94131333
:1056800085EE92E00E94E8170EC10E94A31A8E8F49
:10569000CE014E960E94B71C8E8D813009F07DC0E0
:1056A0000E949019EAE4F0E088E29AE09183808316
:1056B00080E090E0AAE7B4E4898F9A8FAB8FBC8F2B
:1056C000698D7A8D8B8D9C8D20E030E04AEF54E41B
:1056D0000E941F02DC01CB018D8B9E8BAF8BB88F9C
:1056E0006D897E898F89988D20E030E040E85FE306
:1056F0000E94790388232CF481E090E09C8B8B8BB3
:105700003FC06D897E898F89988D20E03FEF4FE7FC
:1057100057E40E94190318164CF5698D7A8D8B8D0C
:105720009C8D20E030E040E251E40E941F02DC0149
:10573000CB01BC01CD010E944900DC01CB019C8B57
:105740008B8B0FC088EC90E09A8B898B89899A8922
:105750000197F1F79A8B898B8B899C8901979C8B98
:105760008B8B8B899C89009769F714C06D897E8922
:105770008F89988D0E944900DC01CB019C8B8B8B1B
:105780008B899C89988B8F878F8598890197F1F7F2
:10579000988B8F870E94741986C08E8D823009F095
:1057A0007DC00E949019EAE4F0E084E492E09183E5
:1057B000808380E090E0AAE7B4E48B879C87AD8784
:1057C000BE876B857C858D859E8520E030E04AEF25
:1057D00054E40E941F02DC01CB018F839887A987C4
:1057E000BA876F81788589859A8520E030E040E826
:1057F0005FE30E94790388232CF481E090E09E838C
:105800008D833FC06F81788589859A8520E03FEF41
:105810004FE757E40E94190318164CF56B857C85F9
:105820008D859E8520E030E040E251E40E941F0219
:10583000DC01CB01BC01CD010E944900DC01CB01A0
:105840009E838D830FC088EC90E09C838B838B813B
:105850009C810197F1F79C838B838D819E810197B9
:105860009E838D838D819E81009769F714C06F811F
:10587000788589859A850E944900DC01CB019E8349
:105880008D838D819E819A83898389819A810197F5
:10589000F1F79A8389830E94741905C08E8D833035
:1058A00011F481E08D8F8D8D882309F4EECE6E96F4
:1058B0000FB6F894DEBF0FBECDBFCF91DF91089534
:1058C000DF93CF9300D0CDB7DEB719820E942B13A0
:1058D00080E690E00E94B21A8DEE92E00E94B21A29
:1058E00085E193E00E94E81780E061E00E941313D5
:1058F0008FE193E00E94E8171EC00E94A31A8A83DA
:10590000CE0102960E94B71C8A81813031F482E078
:1059100067E041E00E94C20A0EC08A81823031F401
:1059200082E067E040E00E94C20A05C08A818330BD
:1059300011F481E0898389818823F9F20F900F9017
:10594000CF91DF910895DF93CF93CDB7DEB7E49782
:105950000FB6F894DEBF0FBECDBF1DA687E18CA7A2
:105960001BA6E4C280914605882309F0C6C00E94A8
:105970002B1380E690E00E94B21A8AE293E00E9424
:10598000B21A8EE393E00E94E81780E061E00E9483
:1059900013138BE493E00E94E8170E94A31A8EA7CA
:1059A000CE018E960E94B71C8EA5282F30E03CAB0E
:1059B0002BAB8BA99CA98130910539F02BA93CA96F
:1059C0002230310509F496C0B1C20E942B130E9407
:1059D000B90580E690E00E94B21A82E593E00E9449
:1059E000B21A82E593E00E94E8179E01215D3F4FC5
:1059F00080E0B9010E9412088FA598A90E94DB1AC5
:105A00008FA598A9CC01A0E0B0E0BC01CD010E9417
:105A100049130E94AA3380E690E00E94B21A8DE5F5
:105A200093E00E94B21A60C080E061E00E9413130C
:105A300080E690E00E94B21A86E993E00E94B21AD2
:105A40008CA5882F90E00E94DB1A85EA93E00E94E3
:105A5000B21A87EA93E00E94E8170E94A0338CA54F
:105A6000882F90E0A0E0B0E0BC01CD010E94491376
:105A70000E9496330E94AA330E94A31A8EA7CE01D9
:105A80008E960E94B71C8EA5813051F48CA58C3166
:105A900058F58CA58F5F8CA78CA58093490524C0F1
:105AA0008EA5823051F48CA58231F0F08CA5815006
:105AB0008CA78CA58093490517C08EA58330A1F4CF
:105AC00083EA9FE20E94A3050E94C90D0E94DC05A3
:105AD00080E00E94AC060E940B190E942B0681E018
